{"project/contracts/BettingForwards.sol":{"BettingForwards":{"abi":[{"inputs":[],"stateMutability":"nonpayable","type":"constructor"},{"anonymous":false,"inputs":[{"indexed":true,"internalType":"uint256","name":"forwardId","type":"uint256"},{"indexed":false,"internalType":"uint256","name":"salePrice","type":"uint256"}],"name":"ForwardListed","type":"event"},{"anonymous":false,"inputs":[{"indexed":true,"internalType":"uint256","name":"forwardId","type":"uint256"},{"indexed":true,"internalType":"address","name":"owner","type":"address"},{"indexed":false,"internalType":"string","name":"matchId","type":"string"},{"indexed":false,"internalType":"uint256","name":"odds","type":"uint256"},{"indexed":false,"internalType":"string","name":"encryptedStakeRef","type":"string"}],"name":"ForwardLocked","type":"event"},{"anonymous":false,"inputs":[{"indexed":true,"internalType":"uint256","name":"forwardId","type":"uint256"},{"indexed":true,"internalType":"address","name":"buyer","type":"address"},{"indexed":true,"internalType":"address","name":"seller","type":"address"},{"indexed":false,"internalType":"uint256","name":"price","type":"uint256"}],"name":"ForwardPurchased","type":"event"},{"inputs":[{"internalType":"uint256","name":"_forwardId","type":"uint256"}],"name":"buyForward","outputs":[],"stateMutability":"payable","type":"function"},{"inputs":[{"internalType":"uint256","name":"","type":"uint256"}],"name":"forwards","outputs":[{"internalType":"uint256","name":"id","type":"uint256"},{"internalType":"address","name":"owner","type":"address"},{"internalType":"string","name":"matchId","type":"string"},{"internalType":"uint256","name":"odds","type":"uint256"},{"internalType":"string","name":"encryptedStakeRef","type":"string"},{"internalType":"bool","name":"forSale","type":"bool"},{"internalType":"uint256","name":"salePrice","type":"uint256"},{"internalType":"uint256","name":"createdAt","type":"uint256"}],"stateMutability":"view","type":"function"},{"inputs":[],"name":"getForwardsForSale","outputs":[{"internalType":"uint256[]","name":"","type":"uint256[]"}],"stateMutability":"view","type":"function"},{"inputs":[{"internalType":"string","name":"_matchId","type":"string"}],"name":"getMatchForwards","outputs":[{"internalType":"uint256[]","name":"","type":"uint256[]"}],"stateMutability":"view","type":"function"},{"inputs":[{"internalType":"address","name":"_user","type":"address"}],"name":"getUserForwards","outputs":[{"internalType":"uint256[]","name":"","type":"uint256[]"}],"stateMutability":"view","type":"function"},{"inputs":[{"internalType":"uint256","name":"_forwardId","type":"uint256"},{"internalType":"uint256","name":"_salePrice","type":"uint256"}],"name":"listForSale","outputs":[],"stateMutability":"nonpayable","type":"function"},{"inputs":[{"internalType":"string","name":"_matchId","type":"string"},{"internalType":"uint256","name":"_odds","type":"uint256"},{"internalType":"string","name":"_encryptedStakeRef","type":"string"}],"name":"lockForward","outputs":[{"internalType":"uint256","name":"","type":"uint256"}],"stateMutability":"nonpayable","type":"function"},{"inputs":[{"internalType":"string","name":"","type":"string"},{"internalType":"uint256","name":"","type":"uint256"}],"name":"matchForwards","outputs":[{"internalType":"uint256","name":"","type":"uint256"}],"stateMutability":"view","type":"function"},{"inputs":[],"name":"nextForwardId","outputs":[{"internalType":"uint256","name":"","type":"uint256"}],"stateMutability":"view","type":"function"},{"inputs":[],"name":"owner","outputs":[{"internalType":"address","name":"","type":"address"}],"stateMutability":"view","type":"function"},{"inputs":[],"name":"platformFee","outputs":[{"internalType":"uint256","name":"","type":"uint256"}],"stateMutability":"view","type":"function"},{"inputs":[{"internalType":"uint256","name":"_fee","type":"uint256"}],"name":"setPlatformFee","outputs":[],"stateMutability":"nonpayable","type":"function"},{"inputs":[{"internalType":"address","name":"","type":"address"},{"internalType":"uint256","name":"","type":"uint256"}],"name":"userForwards","outputs":[{"internalType":"uint256","name":"","type":"uint256"}],"stateMutability":"view","type":"function"},{"inputs":[],"name":"withdrawFees","outputs":[],"stateMutability":"nonpayable","type":"function"}],"evm":{"bytecode":{"linkReferences":{},"object":"6080604052600160035560fa60045534801561001a57600080fd5b5033600560006101000a81548173ffffffffffffffffffffffffffffffffffffffff021916908373ffffffffffffffffffffffffffffffffffffffff1602179055506120398061006b6000396000f3fe6080604052600436106100dd5760003560e01c8063983dc7f21161007f578063d05d688911610059578063d05d6889146102ba578063df2daded146102e5578063e80d7fec14610322578063e9fa01631461034b576100dd565b8063983dc7f214610215578063b1fea0b714610252578063b41ffd031461027d576100dd565b8063476343ee116100bb578063476343ee146101525780636475fd54146101695780637e21ba4f146101ad5780638da5cb5b146101ea576100dd565b8063065c5e0a146100e257806312e8e2c3146100fe57806326232a2e14610127575b600080fd5b6100fc60048036038101906100f791906111a9565b610388565b005b34801561010a57600080fd5b50610125600480360381019061012091906111a9565b61075a565b005b34801561013357600080fd5b5061013c61081e565b60405161014991906111e5565b60405180910390f35b34801561015e57600080fd5b50610167610824565b005b34801561017557600080fd5b50610190600480360381019061018b91906111a9565b6108e9565b6040516101a49897969594939291906112ec565b60405180910390f35b3480156101b957600080fd5b506101d460048036038101906101cf91906114ad565b610a6e565b6040516101e191906111e5565b60405180910390f35b3480156101f657600080fd5b506101ff610cb7565b60405161020c9190611538565b60405180910390f35b34801561022157600080fd5b5061023c60048036038101906102379190611553565b610ce1565b604051610249919061165a565b60405180910390f35b34801561025e57600080fd5b50610267610d57565b60405161027491906111e5565b60405180910390f35b34801561028957600080fd5b506102a4600480360381019061029f91906116a8565b610d5d565b6040516102b191906111e5565b60405180910390f35b3480156102c657600080fd5b506102cf610d8e565b6040516102dc919061165a565b60405180910390f35b3480156102f157600080fd5b5061030c600480360381019061030791906116e8565b610f17565b60405161031991906111e5565b60405180910390f35b34801561032e57600080fd5b5061034960048036038101906103449190611744565b610f5e565b005b34801561035757600080fd5b50610372600480360381019061036d9190611784565b6110c8565b60405161037f919061165a565b60405180910390f35b600080600083815260200190815260200160002090508060050160009054906101000a900460ff166103ef576040517f08c379a00000000000000000000000000000000000000000000000000000000081526004016103e6906117fd565b60405180910390fd5b8060010160009054906101000a900473ffffffffffffffffffffffffffffffffffffffff1673ffffffffffffffffffffffffffffffffffffffff163373ffffffffffffffffffffffffffffffffffffffff1603610481576040517f08c379a000000000000000000000000000000000000000000000000000000000815260040161047890611869565b60405180910390fd5b80600601543410156104c8576040517f08c379a00000000000000000000000000000000000000000000000000000000081526004016104bf906118d5565b60405180910390fd5b60008160010160009054906101000a900473ffffffffffffffffffffffffffffffffffffffff16905060008260060154905060006127106004548361050d9190611924565b6105179190611995565b90506000818361052791906119c6565b9050338560010160006101000a81548173ffffffffffffffffffffffffffffffffffffffff021916908373ffffffffffffffffffffffffffffffffffffffff16021790555060008560050160006101000a81548160ff02191690831515021790555060008560060181905550600160003373ffffffffffffffffffffffffffffffffffffffff1673ffffffffffffffffffffffffffffffffffffffff1681526020019081526020016000208690806001815401808255809150506001900390600052602060002001600090919091909150558373ffffffffffffffffffffffffffffffffffffffff166108fc829081150290604051600060405180830381858888f1935050505015801561063f573d6000803e3d6000fd5b506000821115610691573073ffffffffffffffffffffffffffffffffffffffff166108fc839081150290604051600060405180830381858888f1935050505015801561068f573d6000803e3d6000fd5b505b823411156106ec573373ffffffffffffffffffffffffffffffffffffffff166108fc84346106bf91906119c6565b9081150290604051600060405180830381858888f193505050501580156106ea573d6000803e3d6000fd5b505b8373ffffffffffffffffffffffffffffffffffffffff163373ffffffffffffffffffffffffffffffffffffffff16877fa9d2f7c2d2f39fa3221a7771098a199297e699eb93c1598abb772156d8f580b38660405161074a91906111e5565b60405180910390a4505050505050565b610762610cb7565b73ffffffffffffffffffffffffffffffffffffffff163373ffffffffffffffffffffffffffffffffffffffff16146107cf576040517f08c379a00000000000000000000000000000000000000000000000000000000081526004016107c690611a46565b60405180910390fd5b6103e8811115610814576040517f08c379a000000000000000000000000000000000000000000000000000000000815260040161080b90611ab2565b60405180910390fd5b8060048190555050565b60045481565b61082c610cb7565b73ffffffffffffffffffffffffffffffffffffffff163373ffffffffffffffffffffffffffffffffffffffff1614610899576040517f08c379a000000000000000000000000000000000000000000000000000000000815260040161089090611b1e565b60405180910390fd5b6108a1610cb7565b73ffffffffffffffffffffffffffffffffffffffff166108fc479081150290604051600060405180830381858888f193505050501580156108e6573d6000803e3d6000fd5b50565b60006020528060005260406000206000915090508060000154908060010160009054906101000a900473ffffffffffffffffffffffffffffffffffffffff169080600201805461093890611b6d565b80601f016020809104026020016040519081016040528092919081815260200182805461096490611b6d565b80156109b15780601f10610986576101008083540402835291602001916109b1565b820191906000526020600020905b81548152906001019060200180831161099457829003601f168201915b5050505050908060030154908060040180546109cc90611b6d565b80601f01602080910402602001604051908101604052809291908181526020018280546109f890611b6d565b8015610a455780601f10610a1a57610100808354040283529160200191610a45565b820191906000526020600020905b815481529060010190602001808311610a2857829003601f168201915b5050505050908060050160009054906101000a900460ff16908060060154908060070154905088565b60008060036000815480929190610a8490611b9e565b9190505590506040518061010001604052808281526020013373ffffffffffffffffffffffffffffffffffffffff16815260200186815260200185815260200184815260200160001515815260200160008152602001428152506000808381526020019081526020016000206000820151816000015560208201518160010160006101000a81548173ffffffffffffffffffffffffffffffffffffffff021916908373ffffffffffffffffffffffffffffffffffffffff1602179055506040820151816002019081610b569190611d92565b50606082015181600301556080820151816004019081610b769190611d92565b5060a08201518160050160006101000a81548160ff02191690831515021790555060c0820151816006015560e08201518160070155905050600160003373ffffffffffffffffffffffffffffffffffffffff1673ffffffffffffffffffffffffffffffffffffffff168152602001908152602001600020819080600181540180825580915050600190039060005260206000200160009091909190915055600285604051610c249190611ea0565b90815260200160405180910390208190806001815401808255809150506001900390600052602060002001600090919091909150553373ffffffffffffffffffffffffffffffffffffffff16817fa3acd691f8508e74ccd89f2c4f880bc5ee0332e93805890b0ec76aa62b239fca878787604051610ca493929190611eb7565b60405180910390a3809150509392505050565b6000600560009054906101000a900473ffffffffffffffffffffffffffffffffffffffff16905090565b6060600282604051610cf39190611ea0565b9081526020016040518091039020805480602002602001604051908101604052809291908181526020018280548015610d4b57602002820191906000526020600020905b815481526020019060010190808311610d37575b50505050509050919050565b60035481565b60016020528160005260406000208181548110610d7957600080fd5b90600052602060002001600091509150505481565b606060006001600354610da191906119c6565b67ffffffffffffffff811115610dba57610db9611382565b5b604051908082528060200260200182016040528015610de85781602001602082028036833780820191505090505b509050600080600190505b600354811015610e675760008082815260200190815260200160002060050160009054906101000a900460ff1615610e545780838381518110610e3957610e38611efc565b5b6020026020010181815250508180610e5090611b9e565b9250505b8080610e5f90611b9e565b915050610df3565b5060008167ffffffffffffffff811115610e8457610e83611382565b5b604051908082528060200260200182016040528015610eb25781602001602082028036833780820191505090505b50905060005b82811015610f0d57838181518110610ed357610ed2611efc565b5b6020026020010151828281518110610eee57610eed611efc565b5b6020026020010181815250508080610f0590611b9e565b915050610eb8565b5080935050505090565b6002828051602081018201805184825260208301602085012081835280955050505050508181548110610f4957600080fd5b90600052602060002001600091509150505481565b3373ffffffffffffffffffffffffffffffffffffffff1660008084815260200190815260200160002060010160009054906101000a900473ffffffffffffffffffffffffffffffffffffffff1673ffffffffffffffffffffffffffffffffffffffff1614611001576040517f08c379a0000000000000000000000000000000000000000000000000000000008152600401610ff890611f77565b60405180910390fd5b60008111611044576040517f08c379a000000000000000000000000000000000000000000000000000000000815260040161103b90611fe3565b60405180910390fd5b600160008084815260200190815260200160002060050160006101000a81548160ff0219169083151502179055508060008084815260200190815260200160002060060181905550817f2c5ec9d4b402ee64609316c81de3910c0a7a0085e130f2cbed811f8e8e115df1826040516110bc91906111e5565b60405180910390a25050565b6060600160008373ffffffffffffffffffffffffffffffffffffffff1673ffffffffffffffffffffffffffffffffffffffff16815260200190815260200160002080548060200260200160405190810160405280929190818152602001828054801561115357602002820191906000526020600020905b81548152602001906001019080831161113f575b50505050509050919050565b6000604051905090565b600080fd5b600080fd5b6000819050919050565b61118681611173565b811461119157600080fd5b50565b6000813590506111a38161117d565b92915050565b6000602082840312156111bf576111be611169565b5b60006111cd84828501611194565b91505092915050565b6111df81611173565b82525050565b60006020820190506111fa60008301846111d6565b92915050565b600073ffffffffffffffffffffffffffffffffffffffff82169050919050565b600061122b82611200565b9050919050565b61123b81611220565b82525050565b600081519050919050565b600082825260208201905092915050565b60005b8381101561127b578082015181840152602081019050611260565b60008484015250505050565b6000601f19601f8301169050919050565b60006112a382611241565b6112ad818561124c565b93506112bd81856020860161125d565b6112c681611287565b840191505092915050565b60008115159050919050565b6112e6816112d1565b82525050565b600061010082019050611302600083018b6111d6565b61130f602083018a611232565b81810360408301526113218189611298565b905061133060608301886111d6565b81810360808301526113428187611298565b905061135160a08301866112dd565b61135e60c08301856111d6565b61136b60e08301846111d6565b9998505050505050505050565b600080fd5b600080fd5b7f4e487b7100000000000000000000000000000000000000000000000000000000600052604160045260246000fd5b6113ba82611287565b810181811067ffffffffffffffff821117156113d9576113d8611382565b5b80604052505050565b60006113ec61115f565b90506113f882826113b1565b919050565b600067ffffffffffffffff82111561141857611417611382565b5b61142182611287565b9050602081019050919050565b82818337600083830152505050565b600061145061144b846113fd565b6113e2565b90508281526020810184848401111561146c5761146b61137d565b5b61147784828561142e565b509392505050565b600082601f83011261149457611493611378565b5b81356114a484826020860161143d565b91505092915050565b6000806000606084860312156114c6576114c5611169565b5b600084013567ffffffffffffffff8111156114e4576114e361116e565b5b6114f08682870161147f565b935050602061150186828701611194565b925050604084013567ffffffffffffffff8111156115225761152161116e565b5b61152e8682870161147f565b9150509250925092565b600060208201905061154d6000830184611232565b92915050565b60006020828403121561156957611568611169565b5b600082013567ffffffffffffffff8111156115875761158661116e565b5b6115938482850161147f565b91505092915050565b600081519050919050565b600082825260208201905092915050565b6000819050602082019050919050565b6115d181611173565b82525050565b60006115e383836115c8565b60208301905092915050565b6000602082019050919050565b60006116078261159c565b61161181856115a7565b935061161c836115b8565b8060005b8381101561164d57815161163488826115d7565b975061163f836115ef565b925050600181019050611620565b5085935050505092915050565b6000602082019050818103600083015261167481846115fc565b905092915050565b61168581611220565b811461169057600080fd5b50565b6000813590506116a28161167c565b92915050565b600080604083850312156116bf576116be611169565b5b60006116cd85828601611693565b92505060206116de85828601611194565b9150509250929050565b600080604083850312156116ff576116fe611169565b5b600083013567ffffffffffffffff81111561171d5761171c61116e565b5b6117298582860161147f565b925050602061173a85828601611194565b9150509250929050565b6000806040838503121561175b5761175a611169565b5b600061176985828601611194565b925050602061177a85828601611194565b9150509250929050565b60006020828403121561179a57611799611169565b5b60006117a884828501611693565b91505092915050565b7f466f7277617264206e6f7420666f722073616c65000000000000000000000000600082015250565b60006117e760148361124c565b91506117f2826117b1565b602082019050919050565b60006020820190508181036000830152611816816117da565b9050919050565b7f43616e6e6f742062757920796f7572206f776e20666f72776172640000000000600082015250565b6000611853601b8361124c565b915061185e8261181d565b602082019050919050565b6000602082019050818103600083015261188281611846565b9050919050565b7f496e73756666696369656e74207061796d656e74000000000000000000000000600082015250565b60006118bf60148361124c565b91506118ca82611889565b602082019050919050565b600060208201905081810360008301526118ee816118b2565b9050919050565b7f4e487b7100000000000000000000000000000000000000000000000000000000600052601160045260246000fd5b600061192f82611173565b915061193a83611173565b925082820261194881611173565b9150828204841483151761195f5761195e6118f5565b5b5092915050565b7f4e487b7100000000000000000000000000000000000000000000000000000000600052601260045260246000fd5b60006119a082611173565b91506119ab83611173565b9250826119bb576119ba611966565b5b828204905092915050565b60006119d182611173565b91506119dc83611173565b92508282039050818111156119f4576119f36118f5565b5b92915050565b7f4f6e6c79206f776e65722063616e207365742066656500000000000000000000600082015250565b6000611a3060168361124c565b9150611a3b826119fa565b602082019050919050565b60006020820190508181036000830152611a5f81611a23565b9050919050565b7f4665652063616e6e6f7420657863656564203130250000000000000000000000600082015250565b6000611a9c60158361124c565b9150611aa782611a66565b602082019050919050565b60006020820190508181036000830152611acb81611a8f565b9050919050565b7f4f6e6c79206f776e65722063616e207769746864726177206665657300000000600082015250565b6000611b08601c8361124c565b9150611b1382611ad2565b602082019050919050565b60006020820190508181036000830152611b3781611afb565b9050919050565b7f4e487b7100000000000000000000000000000000000000000000000000000000600052602260045260246000fd5b60006002820490506001821680611b8557607f821691505b602082108103611b9857611b97611b3e565b5b50919050565b6000611ba982611173565b91507fffffffffffffffffffffffffffffffffffffffffffffffffffffffffffffffff8203611bdb57611bda6118f5565b5b600182019050919050565b60008190508160005260206000209050919050565b60006020601f8301049050919050565b600082821b905092915050565b600060088302611c487fffffffffffffffffffffffffffffffffffffffffffffffffffffffffffffffff82611c0b565b611c528683611c0b565b95508019841693508086168417925050509392505050565b6000819050919050565b6000611c8f611c8a611c8584611173565b611c6a565b611173565b9050919050565b6000819050919050565b611ca983611c74565b611cbd611cb582611c96565b848454611c18565b825550505050565b600090565b611cd2611cc5565b611cdd818484611ca0565b505050565b5b81811015611d0157611cf6600082611cca565b600181019050611ce3565b5050565b601f821115611d4657611d1781611be6565b611d2084611bfb565b81016020851015611d2f578190505b611d43611d3b85611bfb565b830182611ce2565b50505b505050565b600082821c905092915050565b6000611d6960001984600802611d4b565b1980831691505092915050565b6000611d828383611d58565b9150826002028217905092915050565b611d9b82611241565b67ffffffffffffffff811115611db457611db3611382565b5b611dbe8254611b6d565b611dc9828285611d05565b600060209050601f831160018114611dfc5760008415611dea578287015190505b611df48582611d76565b865550611e5c565b601f198416611e0a86611be6565b60005b82811015611e3257848901518255600182019150602085019450602081019050611e0d565b86831015611e4f5784890151611e4b601f891682611d58565b8355505b6001600288020188555050505b505050505050565b600081905092915050565b6000611e7a82611241565b611e848185611e64565b9350611e9481856020860161125d565b80840191505092915050565b6000611eac8284611e6f565b915081905092915050565b60006060820190508181036000830152611ed18186611298565b9050611ee060208301856111d6565b8181036040830152611ef28184611298565b9050949350505050565b7f4e487b7100000000000000000000000000000000000000000000000000000000600052603260045260246000fd5b7f4e6f7420746865206f776e657200000000000000000000000000000000000000600082015250565b6000611f61600d8361124c565b9150611f6c82611f2b565b602082019050919050565b60006020820190508181036000830152611f9081611f54565b9050919050565b7f5072696365206d7573742062652067726561746572207468616e203000000000600082015250565b6000611fcd601c8361124c565b9150611fd882611f97565b602082019050919050565b60006020820190508181036000830152611ffc81611fc0565b905091905056fea264697066735822122033a6acc74065c87ffe1553a4e9cc1dc5925295c6b791c3a51e75c57379b53c5164736f6c63430008130033","opcodes":"PUSH1 0x80 PUSH1 0x40 MSTORE PUSH1 0x1 PUSH1 0x3 SSTORE PUSH1 0xFA PUSH1 0x4 SSTORE CALLVALUE DUP1 ISZERO PUSH2 0x1A JUMPI PUSH1 0x0 DUP1 REVERT JUMPDEST POP CALLER PUSH1 0x5 PUSH1 0x0 PUSH2 0x100 EXP DUP2 SLOAD DUP2 PUSH20 0xFFFFFFFFFFFFFFFFFFFFFFFFFFFFFFFFFFFFFFFF MUL NOT AND SWAP1 DUP4 PUSH20 0xFFFFFFFFFFFFFFFFFFFFFFFFFFFFFFFFFFFFFFFF AND MUL OR SWAP1 SSTORE POP PUSH2 0x2039 DUP1 PUSH2 0x6B PUSH1 0x0 CODECOPY PUSH1 0x0 RETURN INVALID PUSH1 0x80 PUSH1 0x40 MSTORE PUSH1 0x4 CALLDATASIZE LT PUSH2 0xDD JUMPI PUSH1 0x0 CALLDATALOAD PUSH1 0xE0 SHR DUP1 PUSH4 0x983DC7F2 GT PUSH2 0x7F JUMPI DUP1 PUSH4 0xD05D6889 GT PUSH2 0x59 JUMPI DUP1 PUSH4 0xD05D6889 EQ PUSH2 0x2BA JUMPI DUP1 PUSH4 0xDF2DADED EQ PUSH2 0x2E5 JUMPI DUP1 PUSH4 0xE80D7FEC EQ PUSH2 0x322 JUMPI DUP1 PUSH4 0xE9FA0163 EQ PUSH2 0x34B JUMPI PUSH2 0xDD JUMP JUMPDEST DUP1 PUSH4 0x983DC7F2 EQ PUSH2 0x215 JUMPI DUP1 PUSH4 0xB1FEA0B7 EQ PUSH2 0x252 JUMPI DUP1 PUSH4 0xB41FFD03 EQ PUSH2 0x27D JUMPI PUSH2 0xDD JUMP JUMPDEST DUP1 PUSH4 0x476343EE GT PUSH2 0xBB JUMPI DUP1 PUSH4 0x476343EE EQ PUSH2 0x152 JUMPI DUP1 PUSH4 0x6475FD54 EQ PUSH2 0x169 JUMPI DUP1 PUSH4 0x7E21BA4F EQ PUSH2 0x1AD JUMPI DUP1 PUSH4 0x8DA5CB5B EQ PUSH2 0x1EA JUMPI PUSH2 0xDD JUMP JUMPDEST DUP1 PUSH4 0x65C5E0A EQ PUSH2 0xE2 JUMPI DUP1 PUSH4 0x12E8E2C3 EQ PUSH2 0xFE JUMPI DUP1 PUSH4 0x26232A2E EQ PUSH2 0x127 JUMPI JUMPDEST PUSH1 0x0 DUP1 REVERT JUMPDEST PUSH2 0xFC PUSH1 0x4 DUP1 CALLDATASIZE SUB DUP2 ADD SWAP1 PUSH2 0xF7 SWAP2 SWAP1 PUSH2 0x11A9 JUMP JUMPDEST PUSH2 0x388 JUMP JUMPDEST STOP JUMPDEST CALLVALUE DUP1 ISZERO PUSH2 0x10A JUMPI PUSH1 0x0 DUP1 REVERT JUMPDEST POP PUSH2 0x125 PUSH1 0x4 DUP1 CALLDATASIZE SUB DUP2 ADD SWAP1 PUSH2 0x120 SWAP2 SWAP1 PUSH2 0x11A9 JUMP JUMPDEST PUSH2 0x75A JUMP JUMPDEST STOP JUMPDEST CALLVALUE DUP1 ISZERO PUSH2 0x133 JUMPI PUSH1 0x0 DUP1 REVERT JUMPDEST POP PUSH2 0x13C PUSH2 0x81E JUMP JUMPDEST PUSH1 0x40 MLOAD PUSH2 0x149 SWAP2 SWAP1 PUSH2 0x11E5 JUMP JUMPDEST PUSH1 0x40 MLOAD DUP1 SWAP2 SUB SWAP1 RETURN JUMPDEST CALLVALUE DUP1 ISZERO PUSH2 0x15E JUMPI PUSH1 0x0 DUP1 REVERT JUMPDEST POP PUSH2 0x167 PUSH2 0x824 JUMP JUMPDEST STOP JUMPDEST CALLVALUE DUP1 ISZERO PUSH2 0x175 JUMPI PUSH1 0x0 DUP1 REVERT JUMPDEST POP PUSH2 0x190 PUSH1 0x4 DUP1 CALLDATASIZE SUB DUP2 ADD SWAP1 PUSH2 0x18B SWAP2 SWAP1 PUSH2 0x11A9 JUMP JUMPDEST PUSH2 0x8E9 JUMP JUMPDEST PUSH1 0x40 MLOAD PUSH2 0x1A4 SWAP9 SWAP8 SWAP7 SWAP6 SWAP5 SWAP4 SWAP3 SWAP2 SWAP1 PUSH2 0x12EC JUMP JUMPDEST PUSH1 0x40 MLOAD DUP1 SWAP2 SUB SWAP1 RETURN JUMPDEST CALLVALUE DUP1 ISZERO PUSH2 0x1B9 JUMPI PUSH1 0x0 DUP1 REVERT JUMPDEST POP PUSH2 0x1D4 PUSH1 0x4 DUP1 CALLDATASIZE SUB DUP2 ADD SWAP1 PUSH2 0x1CF SWAP2 SWAP1 PUSH2 0x14AD JUMP JUMPDEST PUSH2 0xA6E JUMP JUMPDEST PUSH1 0x40 MLOAD PUSH2 0x1E1 SWAP2 SWAP1 PUSH2 0x11E5 JUMP JUMPDEST PUSH1 0x40 MLOAD DUP1 SWAP2 SUB SWAP1 RETURN JUMPDEST CALLVALUE DUP1 ISZERO PUSH2 0x1F6 JUMPI PUSH1 0x0 DUP1 REVERT JUMPDEST POP PUSH2 0x1FF PUSH2 0xCB7 JUMP JUMPDEST PUSH1 0x40 MLOAD PUSH2 0x20C SWAP2 SWAP1 PUSH2 0x1538 JUMP JUMPDEST PUSH1 0x40 MLOAD DUP1 SWAP2 SUB SWAP1 RETURN JUMPDEST CALLVALUE DUP1 ISZERO PUSH2 0x221 JUMPI PUSH1 0x0 DUP1 REVERT JUMPDEST POP PUSH2 0x23C PUSH1 0x4 DUP1 CALLDATASIZE SUB DUP2 ADD SWAP1 PUSH2 0x237 SWAP2 SWAP1 PUSH2 0x1553 JUMP JUMPDEST PUSH2 0xCE1 JUMP JUMPDEST PUSH1 0x40 MLOAD PUSH2 0x249 SWAP2 SWAP1 PUSH2 0x165A JUMP JUMPDEST PUSH1 0x40 MLOAD DUP1 SWAP2 SUB SWAP1 RETURN JUMPDEST CALLVALUE DUP1 ISZERO PUSH2 0x25E JUMPI PUSH1 0x0 DUP1 REVERT JUMPDEST POP PUSH2 0x267 PUSH2 0xD57 JUMP JUMPDEST PUSH1 0x40 MLOAD PUSH2 0x274 SWAP2 SWAP1 PUSH2 0x11E5 JUMP JUMPDEST PUSH1 0x40 MLOAD DUP1 SWAP2 SUB SWAP1 RETURN JUMPDEST CALLVALUE DUP1 ISZERO PUSH2 0x289 JUMPI PUSH1 0x0 DUP1 REVERT JUMPDEST POP PUSH2 0x2A4 PUSH1 0x4 DUP1 CALLDATASIZE SUB DUP2 ADD SWAP1 PUSH2 0x29F SWAP2 SWAP1 PUSH2 0x16A8 JUMP JUMPDEST PUSH2 0xD5D JUMP JUMPDEST PUSH1 0x40 MLOAD PUSH2 0x2B1 SWAP2 SWAP1 PUSH2 0x11E5 JUMP JUMPDEST PUSH1 0x40 MLOAD DUP1 SWAP2 SUB SWAP1 RETURN JUMPDEST CALLVALUE DUP1 ISZERO PUSH2 0x2C6 JUMPI PUSH1 0x0 DUP1 REVERT JUMPDEST POP PUSH2 0x2CF PUSH2 0xD8E JUMP JUMPDEST PUSH1 0x40 MLOAD PUSH2 0x2DC SWAP2 SWAP1 PUSH2 0x165A JUMP JUMPDEST PUSH1 0x40 MLOAD DUP1 SWAP2 SUB SWAP1 RETURN JUMPDEST CALLVALUE DUP1 ISZERO PUSH2 0x2F1 JUMPI PUSH1 0x0 DUP1 REVERT JUMPDEST POP PUSH2 0x30C PUSH1 0x4 DUP1 CALLDATASIZE SUB DUP2 ADD SWAP1 PUSH2 0x307 SWAP2 SWAP1 PUSH2 0x16E8 JUMP JUMPDEST PUSH2 0xF17 JUMP JUMPDEST PUSH1 0x40 MLOAD PUSH2 0x319 SWAP2 SWAP1 PUSH2 0x11E5 JUMP JUMPDEST PUSH1 0x40 MLOAD DUP1 SWAP2 SUB SWAP1 RETURN JUMPDEST CALLVALUE DUP1 ISZERO PUSH2 0x32E JUMPI PUSH1 0x0 DUP1 REVERT JUMPDEST POP PUSH2 0x349 PUSH1 0x4 DUP1 CALLDATASIZE SUB DUP2 ADD SWAP1 PUSH2 0x344 SWAP2 SWAP1 PUSH2 0x1744 JUMP JUMPDEST PUSH2 0xF5E JUMP JUMPDEST STOP JUMPDEST CALLVALUE DUP1 ISZERO PUSH2 0x357 JUMPI PUSH1 0x0 DUP1 REVERT JUMPDEST POP PUSH2 0x372 PUSH1 0x4 DUP1 CALLDATASIZE SUB DUP2 ADD SWAP1 PUSH2 0x36D SWAP2 SWAP1 PUSH2 0x1784 JUMP JUMPDEST PUSH2 0x10C8 JUMP JUMPDEST PUSH1 0x40 MLOAD PUSH2 0x37F SWAP2 SWAP1 PUSH2 0x165A JUMP JUMPDEST PUSH1 0x40 MLOAD DUP1 SWAP2 SUB SWAP1 RETURN JUMPDEST PUSH1 0x0 DUP1 PUSH1 0x0 DUP4 DUP2 MSTORE PUSH1 0x20 ADD SWAP1 DUP2 MSTORE PUSH1 0x20 ADD PUSH1 0x0 KECCAK256 SWAP1 POP DUP1 PUSH1 0x5 ADD PUSH1 0x0 SWAP1 SLOAD SWAP1 PUSH2 0x100 EXP SWAP1 DIV PUSH1 0xFF AND PUSH2 0x3EF JUMPI PUSH1 0x40 MLOAD PUSH32 0x8C379A000000000000000000000000000000000000000000000000000000000 DUP2 MSTORE PUSH1 0x4 ADD PUSH2 0x3E6 SWAP1 PUSH2 0x17FD JUMP JUMPDEST PUSH1 0x40 MLOAD DUP1 SWAP2 SUB SWAP1 REVERT JUMPDEST DUP1 PUSH1 0x1 ADD PUSH1 0x0 SWAP1 SLOAD SWAP1 PUSH2 0x100 EXP SWAP1 DIV PUSH20 0xFFFFFFFFFFFFFFFFFFFFFFFFFFFFFFFFFFFFFFFF AND PUSH20 0xFFFFFFFFFFFFFFFFFFFFFFFFFFFFFFFFFFFFFFFF AND CALLER PUSH20 0xFFFFFFFFFFFFFFFFFFFFFFFFFFFFFFFFFFFFFFFF AND SUB PUSH2 0x481 JUMPI PUSH1 0x40 MLOAD PUSH32 0x8C379A000000000000000000000000000000000000000000000000000000000 DUP2 MSTORE PUSH1 0x4 ADD PUSH2 0x478 SWAP1 PUSH2 0x1869 JUMP JUMPDEST PUSH1 0x40 MLOAD DUP1 SWAP2 SUB SWAP1 REVERT JUMPDEST DUP1 PUSH1 0x6 ADD SLOAD CALLVALUE LT ISZERO PUSH2 0x4C8 JUMPI PUSH1 0x40 MLOAD PUSH32 0x8C379A000000000000000000000000000000000000000000000000000000000 DUP2 MSTORE PUSH1 0x4 ADD PUSH2 0x4BF SWAP1 PUSH2 0x18D5 JUMP JUMPDEST PUSH1 0x40 MLOAD DUP1 SWAP2 SUB SWAP1 REVERT JUMPDEST PUSH1 0x0 DUP2 PUSH1 0x1 ADD PUSH1 0x0 SWAP1 SLOAD SWAP1 PUSH2 0x100 EXP SWAP1 DIV PUSH20 0xFFFFFFFFFFFFFFFFFFFFFFFFFFFFFFFFFFFFFFFF AND SWAP1 POP PUSH1 0x0 DUP3 PUSH1 0x6 ADD SLOAD SWAP1 POP PUSH1 0x0 PUSH2 0x2710 PUSH1 0x4 SLOAD DUP4 PUSH2 0x50D SWAP2 SWAP1 PUSH2 0x1924 JUMP JUMPDEST PUSH2 0x517 SWAP2 SWAP1 PUSH2 0x1995 JUMP JUMPDEST SWAP1 POP PUSH1 0x0 DUP2 DUP4 PUSH2 0x527 SWAP2 SWAP1 PUSH2 0x19C6 JUMP JUMPDEST SWAP1 POP CALLER DUP6 PUSH1 0x1 ADD PUSH1 0x0 PUSH2 0x100 EXP DUP2 SLOAD DUP2 PUSH20 0xFFFFFFFFFFFFFFFFFFFFFFFFFFFFFFFFFFFFFFFF MUL NOT AND SWAP1 DUP4 PUSH20 0xFFFFFFFFFFFFFFFFFFFFFFFFFFFFFFFFFFFFFFFF AND MUL OR SWAP1 SSTORE POP PUSH1 0x0 DUP6 PUSH1 0x5 ADD PUSH1 0x0 PUSH2 0x100 EXP DUP2 SLOAD DUP2 PUSH1 0xFF MUL NOT AND SWAP1 DUP4 ISZERO ISZERO MUL OR SWAP1 SSTORE POP PUSH1 0x0 DUP6 PUSH1 0x6 ADD DUP2 SWAP1 SSTORE POP PUSH1 0x1 PUSH1 0x0 CALLER PUSH20 0xFFFFFFFFFFFFFFFFFFFFFFFFFFFFFFFFFFFFFFFF AND PUSH20 0xFFFFFFFFFFFFFFFFFFFFFFFFFFFFFFFFFFFFFFFF AND DUP2 MSTORE PUSH1 0x20 ADD SWAP1 DUP2 MSTORE PUSH1 0x20 ADD PUSH1 0x0 KECCAK256 DUP7 SWAP1 DUP1 PUSH1 0x1 DUP2 SLOAD ADD DUP1 DUP3 SSTORE DUP1 SWAP2 POP POP PUSH1 0x1 SWAP1 SUB SWAP1 PUSH1 0x0 MSTORE PUSH1 0x20 PUSH1 0x0 KECCAK256 ADD PUSH1 0x0 SWAP1 SWAP2 SWAP1 SWAP2 SWAP1 SWAP2 POP SSTORE DUP4 PUSH20 0xFFFFFFFFFFFFFFFFFFFFFFFFFFFFFFFFFFFFFFFF AND PUSH2 0x8FC DUP3 SWAP1 DUP2 ISZERO MUL SWAP1 PUSH1 0x40 MLOAD PUSH1 0x0 PUSH1 0x40 MLOAD DUP1 DUP4 SUB DUP2 DUP6 DUP9 DUP9 CALL SWAP4 POP POP POP POP ISZERO DUP1 ISZERO PUSH2 0x63F JUMPI RETURNDATASIZE PUSH1 0x0 DUP1 RETURNDATACOPY RETURNDATASIZE PUSH1 0x0 REVERT JUMPDEST POP PUSH1 0x0 DUP3 GT ISZERO PUSH2 0x691 JUMPI ADDRESS PUSH20 0xFFFFFFFFFFFFFFFFFFFFFFFFFFFFFFFFFFFFFFFF AND PUSH2 0x8FC DUP4 SWAP1 DUP2 ISZERO MUL SWAP1 PUSH1 0x40 MLOAD PUSH1 0x0 PUSH1 0x40 MLOAD DUP1 DUP4 SUB DUP2 DUP6 DUP9 DUP9 CALL SWAP4 POP POP POP POP ISZERO DUP1 ISZERO PUSH2 0x68F JUMPI RETURNDATASIZE PUSH1 0x0 DUP1 RETURNDATACOPY RETURNDATASIZE PUSH1 0x0 REVERT JUMPDEST POP JUMPDEST DUP3 CALLVALUE GT ISZERO PUSH2 0x6EC JUMPI CALLER PUSH20 0xFFFFFFFFFFFFFFFFFFFFFFFFFFFFFFFFFFFFFFFF AND PUSH2 0x8FC DUP5 CALLVALUE PUSH2 0x6BF SWAP2 SWAP1 PUSH2 0x19C6 JUMP JUMPDEST SWAP1 DUP2 ISZERO MUL SWAP1 PUSH1 0x40 MLOAD PUSH1 0x0 PUSH1 0x40 MLOAD DUP1 DUP4 SUB DUP2 DUP6 DUP9 DUP9 CALL SWAP4 POP POP POP POP ISZERO DUP1 ISZERO PUSH2 0x6EA JUMPI RETURNDATASIZE PUSH1 0x0 DUP1 RETURNDATACOPY RETURNDATASIZE PUSH1 0x0 REVERT JUMPDEST POP JUMPDEST DUP4 PUSH20 0xFFFFFFFFFFFFFFFFFFFFFFFFFFFFFFFFFFFFFFFF AND CALLER PUSH20 0xFFFFFFFFFFFFFFFFFFFFFFFFFFFFFFFFFFFFFFFF AND DUP8 PUSH32 0xA9D2F7C2D2F39FA3221A7771098A199297E699EB93C1598ABB772156D8F580B3 DUP7 PUSH1 0x40 MLOAD PUSH2 0x74A SWAP2 SWAP1 PUSH2 0x11E5 JUMP JUMPDEST PUSH1 0x40 MLOAD DUP1 SWAP2 SUB SWAP1 LOG4 POP POP POP POP POP POP JUMP JUMPDEST PUSH2 0x762 PUSH2 0xCB7 JUMP JUMPDEST PUSH20 0xFFFFFFFFFFFFFFFFFFFFFFFFFFFFFFFFFFFFFFFF AND CALLER PUSH20 0xFFFFFFFFFFFFFFFFFFFFFFFFFFFFFFFFFFFFFFFF AND EQ PUSH2 0x7CF JUMPI PUSH1 0x40 MLOAD PUSH32 0x8C379A000000000000000000000000000000000000000000000000000000000 DUP2 MSTORE PUSH1 0x4 ADD PUSH2 0x7C6 SWAP1 PUSH2 0x1A46 JUMP JUMPDEST PUSH1 0x40 MLOAD DUP1 SWAP2 SUB SWAP1 REVERT JUMPDEST PUSH2 0x3E8 DUP2 GT ISZERO PUSH2 0x814 JUMPI PUSH1 0x40 MLOAD PUSH32 0x8C379A000000000000000000000000000000000000000000000000000000000 DUP2 MSTORE PUSH1 0x4 ADD PUSH2 0x80B SWAP1 PUSH2 0x1AB2 JUMP JUMPDEST PUSH1 0x40 MLOAD DUP1 SWAP2 SUB SWAP1 REVERT JUMPDEST DUP1 PUSH1 0x4 DUP2 SWAP1 SSTORE POP POP JUMP JUMPDEST PUSH1 0x4 SLOAD DUP2 JUMP JUMPDEST PUSH2 0x82C PUSH2 0xCB7 JUMP JUMPDEST PUSH20 0xFFFFFFFFFFFFFFFFFFFFFFFFFFFFFFFFFFFFFFFF AND CALLER PUSH20 0xFFFFFFFFFFFFFFFFFFFFFFFFFFFFFFFFFFFFFFFF AND EQ PUSH2 0x899 JUMPI PUSH1 0x40 MLOAD PUSH32 0x8C379A000000000000000000000000000000000000000000000000000000000 DUP2 MSTORE PUSH1 0x4 ADD PUSH2 0x890 SWAP1 PUSH2 0x1B1E JUMP JUMPDEST PUSH1 0x40 MLOAD DUP1 SWAP2 SUB SWAP1 REVERT JUMPDEST PUSH2 0x8A1 PUSH2 0xCB7 JUMP JUMPDEST PUSH20 0xFFFFFFFFFFFFFFFFFFFFFFFFFFFFFFFFFFFFFFFF AND PUSH2 0x8FC SELFBALANCE SWAP1 DUP2 ISZERO MUL SWAP1 PUSH1 0x40 MLOAD PUSH1 0x0 PUSH1 0x40 MLOAD DUP1 DUP4 SUB DUP2 DUP6 DUP9 DUP9 CALL SWAP4 POP POP POP POP ISZERO DUP1 ISZERO PUSH2 0x8E6 JUMPI RETURNDATASIZE PUSH1 0x0 DUP1 RETURNDATACOPY RETURNDATASIZE PUSH1 0x0 REVERT JUMPDEST POP JUMP JUMPDEST PUSH1 0x0 PUSH1 0x20 MSTORE DUP1 PUSH1 0x0 MSTORE PUSH1 0x40 PUSH1 0x0 KECCAK256 PUSH1 0x0 SWAP2 POP SWAP1 POP DUP1 PUSH1 0x0 ADD SLOAD SWAP1 DUP1 PUSH1 0x1 ADD PUSH1 0x0 SWAP1 SLOAD SWAP1 PUSH2 0x100 EXP SWAP1 DIV PUSH20 0xFFFFFFFFFFFFFFFFFFFFFFFFFFFFFFFFFFFFFFFF AND SWAP1 DUP1 PUSH1 0x2 ADD DUP1 SLOAD PUSH2 0x938 SWAP1 PUSH2 0x1B6D JUMP JUMPDEST DUP1 PUSH1 0x1F ADD PUSH1 0x20 DUP1 SWAP2 DIV MUL PUSH1 0x20 ADD PUSH1 0x40 MLOAD SWAP1 DUP2 ADD PUSH1 0x40 MSTORE DUP1 SWAP3 SWAP2 SWAP1 DUP2 DUP2 MSTORE PUSH1 0x20 ADD DUP3 DUP1 SLOAD PUSH2 0x964 SWAP1 PUSH2 0x1B6D JUMP JUMPDEST DUP1 ISZERO PUSH2 0x9B1 JUMPI DUP1 PUSH1 0x1F LT PUSH2 0x986 JUMPI PUSH2 0x100 DUP1 DUP4 SLOAD DIV MUL DUP4 MSTORE SWAP2 PUSH1 0x20 ADD SWAP2 PUSH2 0x9B1 JUMP JUMPDEST DUP3 ADD SWAP2 SWAP1 PUSH1 0x0 MSTORE PUSH1 0x20 PUSH1 0x0 KECCAK256 SWAP1 JUMPDEST DUP2 SLOAD DUP2 MSTORE SWAP1 PUSH1 0x1 ADD SWAP1 PUSH1 0x20 ADD DUP1 DUP4 GT PUSH2 0x994 JUMPI DUP3 SWAP1 SUB PUSH1 0x1F AND DUP3 ADD SWAP2 JUMPDEST POP POP POP POP POP SWAP1 DUP1 PUSH1 0x3 ADD SLOAD SWAP1 DUP1 PUSH1 0x4 ADD DUP1 SLOAD PUSH2 0x9CC SWAP1 PUSH2 0x1B6D JUMP JUMPDEST DUP1 PUSH1 0x1F ADD PUSH1 0x20 DUP1 SWAP2 DIV MUL PUSH1 0x20 ADD PUSH1 0x40 MLOAD SWAP1 DUP2 ADD PUSH1 0x40 MSTORE DUP1 SWAP3 SWAP2 SWAP1 DUP2 DUP2 MSTORE PUSH1 0x20 ADD DUP3 DUP1 SLOAD PUSH2 0x9F8 SWAP1 PUSH2 0x1B6D JUMP JUMPDEST DUP1 ISZERO PUSH2 0xA45 JUMPI DUP1 PUSH1 0x1F LT PUSH2 0xA1A JUMPI PUSH2 0x100 DUP1 DUP4 SLOAD DIV MUL DUP4 MSTORE SWAP2 PUSH1 0x20 ADD SWAP2 PUSH2 0xA45 JUMP JUMPDEST DUP3 ADD SWAP2 SWAP1 PUSH1 0x0 MSTORE PUSH1 0x20 PUSH1 0x0 KECCAK256 SWAP1 JUMPDEST DUP2 SLOAD DUP2 MSTORE SWAP1 PUSH1 0x1 ADD SWAP1 PUSH1 0x20 ADD DUP1 DUP4 GT PUSH2 0xA28 JUMPI DUP3 SWAP1 SUB PUSH1 0x1F AND DUP3 ADD SWAP2 JUMPDEST POP POP POP POP POP SWAP1 DUP1 PUSH1 0x5 ADD PUSH1 0x0 SWAP1 SLOAD SWAP1 PUSH2 0x100 EXP SWAP1 DIV PUSH1 0xFF AND SWAP1 DUP1 PUSH1 0x6 ADD SLOAD SWAP1 DUP1 PUSH1 0x7 ADD SLOAD SWAP1 POP DUP9 JUMP JUMPDEST PUSH1 0x0 DUP1 PUSH1 0x3 PUSH1 0x0 DUP2 SLOAD DUP1 SWAP3 SWAP2 SWAP1 PUSH2 0xA84 SWAP1 PUSH2 0x1B9E JUMP JUMPDEST SWAP2 SWAP1 POP SSTORE SWAP1 POP PUSH1 0x40 MLOAD DUP1 PUSH2 0x100 ADD PUSH1 0x40 MSTORE DUP1 DUP3 DUP2 MSTORE PUSH1 0x20 ADD CALLER PUSH20 0xFFFFFFFFFFFFFFFFFFFFFFFFFFFFFFFFFFFFFFFF AND DUP2 MSTORE PUSH1 0x20 ADD DUP7 DUP2 MSTORE PUSH1 0x20 ADD DUP6 DUP2 MSTORE PUSH1 0x20 ADD DUP5 DUP2 MSTORE PUSH1 0x20 ADD PUSH1 0x0 ISZERO ISZERO DUP2 MSTORE PUSH1 0x20 ADD PUSH1 0x0 DUP2 MSTORE PUSH1 0x20 ADD TIMESTAMP DUP2 MSTORE POP PUSH1 0x0 DUP1 DUP4 DUP2 MSTORE PUSH1 0x20 ADD SWAP1 DUP2 MSTORE PUSH1 0x20 ADD PUSH1 0x0 KECCAK256 PUSH1 0x0 DUP3 ADD MLOAD DUP2 PUSH1 0x0 ADD SSTORE PUSH1 0x20 DUP3 ADD MLOAD DUP2 PUSH1 0x1 ADD PUSH1 0x0 PUSH2 0x100 EXP DUP2 SLOAD DUP2 PUSH20 0xFFFFFFFFFFFFFFFFFFFFFFFFFFFFFFFFFFFFFFFF MUL NOT AND SWAP1 DUP4 PUSH20 0xFFFFFFFFFFFFFFFFFFFFFFFFFFFFFFFFFFFFFFFF AND MUL OR SWAP1 SSTORE POP PUSH1 0x40 DUP3 ADD MLOAD DUP2 PUSH1 0x2 ADD SWAP1 DUP2 PUSH2 0xB56 SWAP2 SWAP1 PUSH2 0x1D92 JUMP JUMPDEST POP PUSH1 0x60 DUP3 ADD MLOAD DUP2 PUSH1 0x3 ADD SSTORE PUSH1 0x80 DUP3 ADD MLOAD DUP2 PUSH1 0x4 ADD SWAP1 DUP2 PUSH2 0xB76 SWAP2 SWAP1 PUSH2 0x1D92 JUMP JUMPDEST POP PUSH1 0xA0 DUP3 ADD MLOAD DUP2 PUSH1 0x5 ADD PUSH1 0x0 PUSH2 0x100 EXP DUP2 SLOAD DUP2 PUSH1 0xFF MUL NOT AND SWAP1 DUP4 ISZERO ISZERO MUL OR SWAP1 SSTORE POP PUSH1 0xC0 DUP3 ADD MLOAD DUP2 PUSH1 0x6 ADD SSTORE PUSH1 0xE0 DUP3 ADD MLOAD DUP2 PUSH1 0x7 ADD SSTORE SWAP1 POP POP PUSH1 0x1 PUSH1 0x0 CALLER PUSH20 0xFFFFFFFFFFFFFFFFFFFFFFFFFFFFFFFFFFFFFFFF AND PUSH20 0xFFFFFFFFFFFFFFFFFFFFFFFFFFFFFFFFFFFFFFFF AND DUP2 MSTORE PUSH1 0x20 ADD SWAP1 DUP2 MSTORE PUSH1 0x20 ADD PUSH1 0x0 KECCAK256 DUP2 SWAP1 DUP1 PUSH1 0x1 DUP2 SLOAD ADD DUP1 DUP3 SSTORE DUP1 SWAP2 POP POP PUSH1 0x1 SWAP1 SUB SWAP1 PUSH1 0x0 MSTORE PUSH1 0x20 PUSH1 0x0 KECCAK256 ADD PUSH1 0x0 SWAP1 SWAP2 SWAP1 SWAP2 SWAP1 SWAP2 POP SSTORE PUSH1 0x2 DUP6 PUSH1 0x40 MLOAD PUSH2 0xC24 SWAP2 SWAP1 PUSH2 0x1EA0 JUMP JUMPDEST SWAP1 DUP2 MSTORE PUSH1 0x20 ADD PUSH1 0x40 MLOAD DUP1 SWAP2 SUB SWAP1 KECCAK256 DUP2 SWAP1 DUP1 PUSH1 0x1 DUP2 SLOAD ADD DUP1 DUP3 SSTORE DUP1 SWAP2 POP POP PUSH1 0x1 SWAP1 SUB SWAP1 PUSH1 0x0 MSTORE PUSH1 0x20 PUSH1 0x0 KECCAK256 ADD PUSH1 0x0 SWAP1 SWAP2 SWAP1 SWAP2 SWAP1 SWAP2 POP SSTORE CALLER PUSH20 0xFFFFFFFFFFFFFFFFFFFFFFFFFFFFFFFFFFFFFFFF AND DUP2 PUSH32 0xA3ACD691F8508E74CCD89F2C4F880BC5EE0332E93805890B0EC76AA62B239FCA DUP8 DUP8 DUP8 PUSH1 0x40 MLOAD PUSH2 0xCA4 SWAP4 SWAP3 SWAP2 SWAP1 PUSH2 0x1EB7 JUMP JUMPDEST PUSH1 0x40 MLOAD DUP1 SWAP2 SUB SWAP1 LOG3 DUP1 SWAP2 POP POP SWAP4 SWAP3 POP POP POP JUMP JUMPDEST PUSH1 0x0 PUSH1 0x5 PUSH1 0x0 SWAP1 SLOAD SWAP1 PUSH2 0x100 EXP SWAP1 DIV PUSH20 0xFFFFFFFFFFFFFFFFFFFFFFFFFFFFFFFFFFFFFFFF AND SWAP1 POP SWAP1 JUMP JUMPDEST PUSH1 0x60 PUSH1 0x2 DUP3 PUSH1 0x40 MLOAD PUSH2 0xCF3 SWAP2 SWAP1 PUSH2 0x1EA0 JUMP JUMPDEST SWAP1 DUP2 MSTORE PUSH1 0x20 ADD PUSH1 0x40 MLOAD DUP1 SWAP2 SUB SWAP1 KECCAK256 DUP1 SLOAD DUP1 PUSH1 0x20 MUL PUSH1 0x20 ADD PUSH1 0x40 MLOAD SWAP1 DUP2 ADD PUSH1 0x40 MSTORE DUP1 SWAP3 SWAP2 SWAP1 DUP2 DUP2 MSTORE PUSH1 0x20 ADD DUP3 DUP1 SLOAD DUP1 ISZERO PUSH2 0xD4B JUMPI PUSH1 0x20 MUL DUP3 ADD SWAP2 SWAP1 PUSH1 0x0 MSTORE PUSH1 0x20 PUSH1 0x0 KECCAK256 SWAP1 JUMPDEST DUP2 SLOAD DUP2 MSTORE PUSH1 0x20 ADD SWAP1 PUSH1 0x1 ADD SWAP1 DUP1 DUP4 GT PUSH2 0xD37 JUMPI JUMPDEST POP POP POP POP POP SWAP1 POP SWAP2 SWAP1 POP JUMP JUMPDEST PUSH1 0x3 SLOAD DUP2 JUMP JUMPDEST PUSH1 0x1 PUSH1 0x20 MSTORE DUP2 PUSH1 0x0 MSTORE PUSH1 0x40 PUSH1 0x0 KECCAK256 DUP2 DUP2 SLOAD DUP2 LT PUSH2 0xD79 JUMPI PUSH1 0x0 DUP1 REVERT JUMPDEST SWAP1 PUSH1 0x0 MSTORE PUSH1 0x20 PUSH1 0x0 KECCAK256 ADD PUSH1 0x0 SWAP2 POP SWAP2 POP POP SLOAD DUP2 JUMP JUMPDEST PUSH1 0x60 PUSH1 0x0 PUSH1 0x1 PUSH1 0x3 SLOAD PUSH2 0xDA1 SWAP2 SWAP1 PUSH2 0x19C6 JUMP JUMPDEST PUSH8 0xFFFFFFFFFFFFFFFF DUP2 GT ISZERO PUSH2 0xDBA JUMPI PUSH2 0xDB9 PUSH2 0x1382 JUMP JUMPDEST JUMPDEST PUSH1 0x40 MLOAD SWAP1 DUP1 DUP3 MSTORE DUP1 PUSH1 0x20 MUL PUSH1 0x20 ADD DUP3 ADD PUSH1 0x40 MSTORE DUP1 ISZERO PUSH2 0xDE8 JUMPI DUP2 PUSH1 0x20 ADD PUSH1 0x20 DUP3 MUL DUP1 CALLDATASIZE DUP4 CALLDATACOPY DUP1 DUP3 ADD SWAP2 POP POP SWAP1 POP JUMPDEST POP SWAP1 POP PUSH1 0x0 DUP1 PUSH1 0x1 SWAP1 POP JUMPDEST PUSH1 0x3 SLOAD DUP2 LT ISZERO PUSH2 0xE67 JUMPI PUSH1 0x0 DUP1 DUP3 DUP2 MSTORE PUSH1 0x20 ADD SWAP1 DUP2 MSTORE PUSH1 0x20 ADD PUSH1 0x0 KECCAK256 PUSH1 0x5 ADD PUSH1 0x0 SWAP1 SLOAD SWAP1 PUSH2 0x100 EXP SWAP1 DIV PUSH1 0xFF AND ISZERO PUSH2 0xE54 JUMPI DUP1 DUP4 DUP4 DUP2 MLOAD DUP2 LT PUSH2 0xE39 JUMPI PUSH2 0xE38 PUSH2 0x1EFC JUMP JUMPDEST JUMPDEST PUSH1 0x20 MUL PUSH1 0x20 ADD ADD DUP2 DUP2 MSTORE POP POP DUP2 DUP1 PUSH2 0xE50 SWAP1 PUSH2 0x1B9E JUMP JUMPDEST SWAP3 POP POP JUMPDEST DUP1 DUP1 PUSH2 0xE5F SWAP1 PUSH2 0x1B9E JUMP JUMPDEST SWAP2 POP POP PUSH2 0xDF3 JUMP JUMPDEST POP PUSH1 0x0 DUP2 PUSH8 0xFFFFFFFFFFFFFFFF DUP2 GT ISZERO PUSH2 0xE84 JUMPI PUSH2 0xE83 PUSH2 0x1382 JUMP JUMPDEST JUMPDEST PUSH1 0x40 MLOAD SWAP1 DUP1 DUP3 MSTORE DUP1 PUSH1 0x20 MUL PUSH1 0x20 ADD DUP3 ADD PUSH1 0x40 MSTORE DUP1 ISZERO PUSH2 0xEB2 JUMPI DUP2 PUSH1 0x20 ADD PUSH1 0x20 DUP3 MUL DUP1 CALLDATASIZE DUP4 CALLDATACOPY DUP1 DUP3 ADD SWAP2 POP POP SWAP1 POP JUMPDEST POP SWAP1 POP PUSH1 0x0 JUMPDEST DUP3 DUP2 LT ISZERO PUSH2 0xF0D JUMPI DUP4 DUP2 DUP2 MLOAD DUP2 LT PUSH2 0xED3 JUMPI PUSH2 0xED2 PUSH2 0x1EFC JUMP JUMPDEST JUMPDEST PUSH1 0x20 MUL PUSH1 0x20 ADD ADD MLOAD DUP3 DUP3 DUP2 MLOAD DUP2 LT PUSH2 0xEEE JUMPI PUSH2 0xEED PUSH2 0x1EFC JUMP JUMPDEST JUMPDEST PUSH1 0x20 MUL PUSH1 0x20 ADD ADD DUP2 DUP2 MSTORE POP POP DUP1 DUP1 PUSH2 0xF05 SWAP1 PUSH2 0x1B9E JUMP JUMPDEST SWAP2 POP POP PUSH2 0xEB8 JUMP JUMPDEST POP DUP1 SWAP4 POP POP POP POP SWAP1 JUMP JUMPDEST PUSH1 0x2 DUP3 DUP1 MLOAD PUSH1 0x20 DUP2 ADD DUP3 ADD DUP1 MLOAD DUP5 DUP3 MSTORE PUSH1 0x20 DUP4 ADD PUSH1 0x20 DUP6 ADD KECCAK256 DUP2 DUP4 MSTORE DUP1 SWAP6 POP POP POP POP POP POP DUP2 DUP2 SLOAD DUP2 LT PUSH2 0xF49 JUMPI PUSH1 0x0 DUP1 REVERT JUMPDEST SWAP1 PUSH1 0x0 MSTORE PUSH1 0x20 PUSH1 0x0 KECCAK256 ADD PUSH1 0x0 SWAP2 POP SWAP2 POP POP SLOAD DUP2 JUMP JUMPDEST CALLER PUSH20 0xFFFFFFFFFFFFFFFFFFFFFFFFFFFFFFFFFFFFFFFF AND PUSH1 0x0 DUP1 DUP5 DUP2 MSTORE PUSH1 0x20 ADD SWAP1 DUP2 MSTORE PUSH1 0x20 ADD PUSH1 0x0 KECCAK256 PUSH1 0x1 ADD PUSH1 0x0 SWAP1 SLOAD SWAP1 PUSH2 0x100 EXP SWAP1 DIV PUSH20 0xFFFFFFFFFFFFFFFFFFFFFFFFFFFFFFFFFFFFFFFF AND PUSH20 0xFFFFFFFFFFFFFFFFFFFFFFFFFFFFFFFFFFFFFFFF AND EQ PUSH2 0x1001 JUMPI PUSH1 0x40 MLOAD PUSH32 0x8C379A000000000000000000000000000000000000000000000000000000000 DUP2 MSTORE PUSH1 0x4 ADD PUSH2 0xFF8 SWAP1 PUSH2 0x1F77 JUMP JUMPDEST PUSH1 0x40 MLOAD DUP1 SWAP2 SUB SWAP1 REVERT JUMPDEST PUSH1 0x0 DUP2 GT PUSH2 0x1044 JUMPI PUSH1 0x40 MLOAD PUSH32 0x8C379A000000000000000000000000000000000000000000000000000000000 DUP2 MSTORE PUSH1 0x4 ADD PUSH2 0x103B SWAP1 PUSH2 0x1FE3 JUMP JUMPDEST PUSH1 0x40 MLOAD DUP1 SWAP2 SUB SWAP1 REVERT JUMPDEST PUSH1 0x1 PUSH1 0x0 DUP1 DUP5 DUP2 MSTORE PUSH1 0x20 ADD SWAP1 DUP2 MSTORE PUSH1 0x20 ADD PUSH1 0x0 KECCAK256 PUSH1 0x5 ADD PUSH1 0x0 PUSH2 0x100 EXP DUP2 SLOAD DUP2 PUSH1 0xFF MUL NOT AND SWAP1 DUP4 ISZERO ISZERO MUL OR SWAP1 SSTORE POP DUP1 PUSH1 0x0 DUP1 DUP5 DUP2 MSTORE PUSH1 0x20 ADD SWAP1 DUP2 MSTORE PUSH1 0x20 ADD PUSH1 0x0 KECCAK256 PUSH1 0x6 ADD DUP2 SWAP1 SSTORE POP DUP2 PUSH32 0x2C5EC9D4B402EE64609316C81DE3910C0A7A0085E130F2CBED811F8E8E115DF1 DUP3 PUSH1 0x40 MLOAD PUSH2 0x10BC SWAP2 SWAP1 PUSH2 0x11E5 JUMP JUMPDEST PUSH1 0x40 MLOAD DUP1 SWAP2 SUB SWAP1 LOG2 POP POP JUMP JUMPDEST PUSH1 0x60 PUSH1 0x1 PUSH1 0x0 DUP4 PUSH20 0xFFFFFFFFFFFFFFFFFFFFFFFFFFFFFFFFFFFFFFFF AND PUSH20 0xFFFFFFFFFFFFFFFFFFFFFFFFFFFFFFFFFFFFFFFF AND DUP2 MSTORE PUSH1 0x20 ADD SWAP1 DUP2 MSTORE PUSH1 0x20 ADD PUSH1 0x0 KECCAK256 DUP1 SLOAD DUP1 PUSH1 0x20 MUL PUSH1 0x20 ADD PUSH1 0x40 MLOAD SWAP1 DUP2 ADD PUSH1 0x40 MSTORE DUP1 SWAP3 SWAP2 SWAP1 DUP2 DUP2 MSTORE PUSH1 0x20 ADD DUP3 DUP1 SLOAD DUP1 ISZERO PUSH2 0x1153 JUMPI PUSH1 0x20 MUL DUP3 ADD SWAP2 SWAP1 PUSH1 0x0 MSTORE PUSH1 0x20 PUSH1 0x0 KECCAK256 SWAP1 JUMPDEST DUP2 SLOAD DUP2 MSTORE PUSH1 0x20 ADD SWAP1 PUSH1 0x1 ADD SWAP1 DUP1 DUP4 GT PUSH2 0x113F JUMPI JUMPDEST POP POP POP POP POP SWAP1 POP SWAP2 SWAP1 POP JUMP JUMPDEST PUSH1 0x0 PUSH1 0x40 MLOAD SWAP1 POP SWAP1 JUMP JUMPDEST PUSH1 0x0 DUP1 REVERT JUMPDEST PUSH1 0x0 DUP1 REVERT JUMPDEST PUSH1 0x0 DUP2 SWAP1 POP SWAP2 SWAP1 POP JUMP JUMPDEST PUSH2 0x1186 DUP2 PUSH2 0x1173 JUMP JUMPDEST DUP2 EQ PUSH2 0x1191 JUMPI PUSH1 0x0 DUP1 REVERT JUMPDEST POP JUMP JUMPDEST PUSH1 0x0 DUP2 CALLDATALOAD SWAP1 POP PUSH2 0x11A3 DUP2 PUSH2 0x117D JUMP JUMPDEST SWAP3 SWAP2 POP POP JUMP JUMPDEST PUSH1 0x0 PUSH1 0x20 DUP3 DUP5 SUB SLT ISZERO PUSH2 0x11BF JUMPI PUSH2 0x11BE PUSH2 0x1169 JUMP JUMPDEST JUMPDEST PUSH1 0x0 PUSH2 0x11CD DUP5 DUP3 DUP6 ADD PUSH2 0x1194 JUMP JUMPDEST SWAP2 POP POP SWAP3 SWAP2 POP POP JUMP JUMPDEST PUSH2 0x11DF DUP2 PUSH2 0x1173 JUMP JUMPDEST DUP3 MSTORE POP POP JUMP JUMPDEST PUSH1 0x0 PUSH1 0x20 DUP3 ADD SWAP1 POP PUSH2 0x11FA PUSH1 0x0 DUP4 ADD DUP5 PUSH2 0x11D6 JUMP JUMPDEST SWAP3 SWAP2 POP POP JUMP JUMPDEST PUSH1 0x0 PUSH20 0xFFFFFFFFFFFFFFFFFFFFFFFFFFFFFFFFFFFFFFFF DUP3 AND SWAP1 POP SWAP2 SWAP1 POP JUMP JUMPDEST PUSH1 0x0 PUSH2 0x122B DUP3 PUSH2 0x1200 JUMP JUMPDEST SWAP1 POP SWAP2 SWAP1 POP JUMP JUMPDEST PUSH2 0x123B DUP2 PUSH2 0x1220 JUMP JUMPDEST DUP3 MSTORE POP POP JUMP JUMPDEST PUSH1 0x0 DUP2 MLOAD SWAP1 POP SWAP2 SWAP1 POP JUMP JUMPDEST PUSH1 0x0 DUP3 DUP3 MSTORE PUSH1 0x20 DUP3 ADD SWAP1 POP SWAP3 SWAP2 POP POP JUMP JUMPDEST PUSH1 0x0 JUMPDEST DUP4 DUP2 LT ISZERO PUSH2 0x127B JUMPI DUP1 DUP3 ADD MLOAD DUP2 DUP5 ADD MSTORE PUSH1 0x20 DUP2 ADD SWAP1 POP PUSH2 0x1260 JUMP JUMPDEST PUSH1 0x0 DUP5 DUP5 ADD MSTORE POP POP POP POP JUMP JUMPDEST PUSH1 0x0 PUSH1 0x1F NOT PUSH1 0x1F DUP4 ADD AND SWAP1 POP SWAP2 SWAP1 POP JUMP JUMPDEST PUSH1 0x0 PUSH2 0x12A3 DUP3 PUSH2 0x1241 JUMP JUMPDEST PUSH2 0x12AD DUP2 DUP6 PUSH2 0x124C JUMP JUMPDEST SWAP4 POP PUSH2 0x12BD DUP2 DUP6 PUSH1 0x20 DUP7 ADD PUSH2 0x125D JUMP JUMPDEST PUSH2 0x12C6 DUP2 PUSH2 0x1287 JUMP JUMPDEST DUP5 ADD SWAP2 POP POP SWAP3 SWAP2 POP POP JUMP JUMPDEST PUSH1 0x0 DUP2 ISZERO ISZERO SWAP1 POP SWAP2 SWAP1 POP JUMP JUMPDEST PUSH2 0x12E6 DUP2 PUSH2 0x12D1 JUMP JUMPDEST DUP3 MSTORE POP POP JUMP JUMPDEST PUSH1 0x0 PUSH2 0x100 DUP3 ADD SWAP1 POP PUSH2 0x1302 PUSH1 0x0 DUP4 ADD DUP12 PUSH2 0x11D6 JUMP JUMPDEST PUSH2 0x130F PUSH1 0x20 DUP4 ADD DUP11 PUSH2 0x1232 JUMP JUMPDEST DUP2 DUP2 SUB PUSH1 0x40 DUP4 ADD MSTORE PUSH2 0x1321 DUP2 DUP10 PUSH2 0x1298 JUMP JUMPDEST SWAP1 POP PUSH2 0x1330 PUSH1 0x60 DUP4 ADD DUP9 PUSH2 0x11D6 JUMP JUMPDEST DUP2 DUP2 SUB PUSH1 0x80 DUP4 ADD MSTORE PUSH2 0x1342 DUP2 DUP8 PUSH2 0x1298 JUMP JUMPDEST SWAP1 POP PUSH2 0x1351 PUSH1 0xA0 DUP4 ADD DUP7 PUSH2 0x12DD JUMP JUMPDEST PUSH2 0x135E PUSH1 0xC0 DUP4 ADD DUP6 PUSH2 0x11D6 JUMP JUMPDEST PUSH2 0x136B PUSH1 0xE0 DUP4 ADD DUP5 PUSH2 0x11D6 JUMP JUMPDEST SWAP10 SWAP9 POP POP POP POP POP POP POP POP POP JUMP JUMPDEST PUSH1 0x0 DUP1 REVERT JUMPDEST PUSH1 0x0 DUP1 REVERT JUMPDEST PUSH32 0x4E487B7100000000000000000000000000000000000000000000000000000000 PUSH1 0x0 MSTORE PUSH1 0x41 PUSH1 0x4 MSTORE PUSH1 0x24 PUSH1 0x0 REVERT JUMPDEST PUSH2 0x13BA DUP3 PUSH2 0x1287 JUMP JUMPDEST DUP2 ADD DUP2 DUP2 LT PUSH8 0xFFFFFFFFFFFFFFFF DUP3 GT OR ISZERO PUSH2 0x13D9 JUMPI PUSH2 0x13D8 PUSH2 0x1382 JUMP JUMPDEST JUMPDEST DUP1 PUSH1 0x40 MSTORE POP POP POP JUMP JUMPDEST PUSH1 0x0 PUSH2 0x13EC PUSH2 0x115F JUMP JUMPDEST SWAP1 POP PUSH2 0x13F8 DUP3 DUP3 PUSH2 0x13B1 JUMP JUMPDEST SWAP2 SWAP1 POP JUMP JUMPDEST PUSH1 0x0 PUSH8 0xFFFFFFFFFFFFFFFF DUP3 GT ISZERO PUSH2 0x1418 JUMPI PUSH2 0x1417 PUSH2 0x1382 JUMP JUMPDEST JUMPDEST PUSH2 0x1421 DUP3 PUSH2 0x1287 JUMP JUMPDEST SWAP1 POP PUSH1 0x20 DUP2 ADD SWAP1 POP SWAP2 SWAP1 POP JUMP JUMPDEST DUP3 DUP2 DUP4 CALLDATACOPY PUSH1 0x0 DUP4 DUP4 ADD MSTORE POP POP POP JUMP JUMPDEST PUSH1 0x0 PUSH2 0x1450 PUSH2 0x144B DUP5 PUSH2 0x13FD JUMP JUMPDEST PUSH2 0x13E2 JUMP JUMPDEST SWAP1 POP DUP3 DUP2 MSTORE PUSH1 0x20 DUP2 ADD DUP5 DUP5 DUP5 ADD GT ISZERO PUSH2 0x146C JUMPI PUSH2 0x146B PUSH2 0x137D JUMP JUMPDEST JUMPDEST PUSH2 0x1477 DUP5 DUP3 DUP6 PUSH2 0x142E JUMP JUMPDEST POP SWAP4 SWAP3 POP POP POP JUMP JUMPDEST PUSH1 0x0 DUP3 PUSH1 0x1F DUP4 ADD SLT PUSH2 0x1494 JUMPI PUSH2 0x1493 PUSH2 0x1378 JUMP JUMPDEST JUMPDEST DUP2 CALLDATALOAD PUSH2 0x14A4 DUP5 DUP3 PUSH1 0x20 DUP7 ADD PUSH2 0x143D JUMP JUMPDEST SWAP2 POP POP SWAP3 SWAP2 POP POP JUMP JUMPDEST PUSH1 0x0 DUP1 PUSH1 0x0 PUSH1 0x60 DUP5 DUP7 SUB SLT ISZERO PUSH2 0x14C6 JUMPI PUSH2 0x14C5 PUSH2 0x1169 JUMP JUMPDEST JUMPDEST PUSH1 0x0 DUP5 ADD CALLDATALOAD PUSH8 0xFFFFFFFFFFFFFFFF DUP2 GT ISZERO PUSH2 0x14E4 JUMPI PUSH2 0x14E3 PUSH2 0x116E JUMP JUMPDEST JUMPDEST PUSH2 0x14F0 DUP7 DUP3 DUP8 ADD PUSH2 0x147F JUMP JUMPDEST SWAP4 POP POP PUSH1 0x20 PUSH2 0x1501 DUP7 DUP3 DUP8 ADD PUSH2 0x1194 JUMP JUMPDEST SWAP3 POP POP PUSH1 0x40 DUP5 ADD CALLDATALOAD PUSH8 0xFFFFFFFFFFFFFFFF DUP2 GT ISZERO PUSH2 0x1522 JUMPI PUSH2 0x1521 PUSH2 0x116E JUMP JUMPDEST JUMPDEST PUSH2 0x152E DUP7 DUP3 DUP8 ADD PUSH2 0x147F JUMP JUMPDEST SWAP2 POP POP SWAP3 POP SWAP3 POP SWAP3 JUMP JUMPDEST PUSH1 0x0 PUSH1 0x20 DUP3 ADD SWAP1 POP PUSH2 0x154D PUSH1 0x0 DUP4 ADD DUP5 PUSH2 0x1232 JUMP JUMPDEST SWAP3 SWAP2 POP POP JUMP JUMPDEST PUSH1 0x0 PUSH1 0x20 DUP3 DUP5 SUB SLT ISZERO PUSH2 0x1569 JUMPI PUSH2 0x1568 PUSH2 0x1169 JUMP JUMPDEST JUMPDEST PUSH1 0x0 DUP3 ADD CALLDATALOAD PUSH8 0xFFFFFFFFFFFFFFFF DUP2 GT ISZERO PUSH2 0x1587 JUMPI PUSH2 0x1586 PUSH2 0x116E JUMP JUMPDEST JUMPDEST PUSH2 0x1593 DUP5 DUP3 DUP6 ADD PUSH2 0x147F JUMP JUMPDEST SWAP2 POP POP SWAP3 SWAP2 POP POP JUMP JUMPDEST PUSH1 0x0 DUP2 MLOAD SWAP1 POP SWAP2 SWAP1 POP JUMP JUMPDEST PUSH1 0x0 DUP3 DUP3 MSTORE PUSH1 0x20 DUP3 ADD SWAP1 POP SWAP3 SWAP2 POP POP JUMP JUMPDEST PUSH1 0x0 DUP2 SWAP1 POP PUSH1 0x20 DUP3 ADD SWAP1 POP SWAP2 SWAP1 POP JUMP JUMPDEST PUSH2 0x15D1 DUP2 PUSH2 0x1173 JUMP JUMPDEST DUP3 MSTORE POP POP JUMP JUMPDEST PUSH1 0x0 PUSH2 0x15E3 DUP4 DUP4 PUSH2 0x15C8 JUMP JUMPDEST PUSH1 0x20 DUP4 ADD SWAP1 POP SWAP3 SWAP2 POP POP JUMP JUMPDEST PUSH1 0x0 PUSH1 0x20 DUP3 ADD SWAP1 POP SWAP2 SWAP1 POP JUMP JUMPDEST PUSH1 0x0 PUSH2 0x1607 DUP3 PUSH2 0x159C JUMP JUMPDEST PUSH2 0x1611 DUP2 DUP6 PUSH2 0x15A7 JUMP JUMPDEST SWAP4 POP PUSH2 0x161C DUP4 PUSH2 0x15B8 JUMP JUMPDEST DUP1 PUSH1 0x0 JUMPDEST DUP4 DUP2 LT ISZERO PUSH2 0x164D JUMPI DUP2 MLOAD PUSH2 0x1634 DUP9 DUP3 PUSH2 0x15D7 JUMP JUMPDEST SWAP8 POP PUSH2 0x163F DUP4 PUSH2 0x15EF JUMP JUMPDEST SWAP3 POP POP PUSH1 0x1 DUP2 ADD SWAP1 POP PUSH2 0x1620 JUMP JUMPDEST POP DUP6 SWAP4 POP POP POP POP SWAP3 SWAP2 POP POP JUMP JUMPDEST PUSH1 0x0 PUSH1 0x20 DUP3 ADD SWAP1 POP DUP2 DUP2 SUB PUSH1 0x0 DUP4 ADD MSTORE PUSH2 0x1674 DUP2 DUP5 PUSH2 0x15FC JUMP JUMPDEST SWAP1 POP SWAP3 SWAP2 POP POP JUMP JUMPDEST PUSH2 0x1685 DUP2 PUSH2 0x1220 JUMP JUMPDEST DUP2 EQ PUSH2 0x1690 JUMPI PUSH1 0x0 DUP1 REVERT JUMPDEST POP JUMP JUMPDEST PUSH1 0x0 DUP2 CALLDATALOAD SWAP1 POP PUSH2 0x16A2 DUP2 PUSH2 0x167C JUMP JUMPDEST SWAP3 SWAP2 POP POP JUMP JUMPDEST PUSH1 0x0 DUP1 PUSH1 0x40 DUP4 DUP6 SUB SLT ISZERO PUSH2 0x16BF JUMPI PUSH2 0x16BE PUSH2 0x1169 JUMP JUMPDEST JUMPDEST PUSH1 0x0 PUSH2 0x16CD DUP6 DUP3 DUP7 ADD PUSH2 0x1693 JUMP JUMPDEST SWAP3 POP POP PUSH1 0x20 PUSH2 0x16DE DUP6 DUP3 DUP7 ADD PUSH2 0x1194 JUMP JUMPDEST SWAP2 POP POP SWAP3 POP SWAP3 SWAP1 POP JUMP JUMPDEST PUSH1 0x0 DUP1 PUSH1 0x40 DUP4 DUP6 SUB SLT ISZERO PUSH2 0x16FF JUMPI PUSH2 0x16FE PUSH2 0x1169 JUMP JUMPDEST JUMPDEST PUSH1 0x0 DUP4 ADD CALLDATALOAD PUSH8 0xFFFFFFFFFFFFFFFF DUP2 GT ISZERO PUSH2 0x171D JUMPI PUSH2 0x171C PUSH2 0x116E JUMP JUMPDEST JUMPDEST PUSH2 0x1729 DUP6 DUP3 DUP7 ADD PUSH2 0x147F JUMP JUMPDEST SWAP3 POP POP PUSH1 0x20 PUSH2 0x173A DUP6 DUP3 DUP7 ADD PUSH2 0x1194 JUMP JUMPDEST SWAP2 POP POP SWAP3 POP SWAP3 SWAP1 POP JUMP JUMPDEST PUSH1 0x0 DUP1 PUSH1 0x40 DUP4 DUP6 SUB SLT ISZERO PUSH2 0x175B JUMPI PUSH2 0x175A PUSH2 0x1169 JUMP JUMPDEST JUMPDEST PUSH1 0x0 PUSH2 0x1769 DUP6 DUP3 DUP7 ADD PUSH2 0x1194 JUMP JUMPDEST SWAP3 POP POP PUSH1 0x20 PUSH2 0x177A DUP6 DUP3 DUP7 ADD PUSH2 0x1194 JUMP JUMPDEST SWAP2 POP POP SWAP3 POP SWAP3 SWAP1 POP JUMP JUMPDEST PUSH1 0x0 PUSH1 0x20 DUP3 DUP5 SUB SLT ISZERO PUSH2 0x179A JUMPI PUSH2 0x1799 PUSH2 0x1169 JUMP JUMPDEST JUMPDEST PUSH1 0x0 PUSH2 0x17A8 DUP5 DUP3 DUP6 ADD PUSH2 0x1693 JUMP JUMPDEST SWAP2 POP POP SWAP3 SWAP2 POP POP JUMP JUMPDEST PUSH32 0x466F7277617264206E6F7420666F722073616C65000000000000000000000000 PUSH1 0x0 DUP3 ADD MSTORE POP JUMP JUMPDEST PUSH1 0x0 PUSH2 0x17E7 PUSH1 0x14 DUP4 PUSH2 0x124C JUMP JUMPDEST SWAP2 POP PUSH2 0x17F2 DUP3 PUSH2 0x17B1 JUMP JUMPDEST PUSH1 0x20 DUP3 ADD SWAP1 POP SWAP2 SWAP1 POP JUMP JUMPDEST PUSH1 0x0 PUSH1 0x20 DUP3 ADD SWAP1 POP DUP2 DUP2 SUB PUSH1 0x0 DUP4 ADD MSTORE PUSH2 0x1816 DUP2 PUSH2 0x17DA JUMP JUMPDEST SWAP1 POP SWAP2 SWAP1 POP JUMP JUMPDEST PUSH32 0x43616E6E6F742062757920796F7572206F776E20666F72776172640000000000 PUSH1 0x0 DUP3 ADD MSTORE POP JUMP JUMPDEST PUSH1 0x0 PUSH2 0x1853 PUSH1 0x1B DUP4 PUSH2 0x124C JUMP JUMPDEST SWAP2 POP PUSH2 0x185E DUP3 PUSH2 0x181D JUMP JUMPDEST PUSH1 0x20 DUP3 ADD SWAP1 POP SWAP2 SWAP1 POP JUMP JUMPDEST PUSH1 0x0 PUSH1 0x20 DUP3 ADD SWAP1 POP DUP2 DUP2 SUB PUSH1 0x0 DUP4 ADD MSTORE PUSH2 0x1882 DUP2 PUSH2 0x1846 JUMP JUMPDEST SWAP1 POP SWAP2 SWAP1 POP JUMP JUMPDEST PUSH32 0x496E73756666696369656E74207061796D656E74000000000000000000000000 PUSH1 0x0 DUP3 ADD MSTORE POP JUMP JUMPDEST PUSH1 0x0 PUSH2 0x18BF PUSH1 0x14 DUP4 PUSH2 0x124C JUMP JUMPDEST SWAP2 POP PUSH2 0x18CA DUP3 PUSH2 0x1889 JUMP JUMPDEST PUSH1 0x20 DUP3 ADD SWAP1 POP SWAP2 SWAP1 POP JUMP JUMPDEST PUSH1 0x0 PUSH1 0x20 DUP3 ADD SWAP1 POP DUP2 DUP2 SUB PUSH1 0x0 DUP4 ADD MSTORE PUSH2 0x18EE DUP2 PUSH2 0x18B2 JUMP JUMPDEST SWAP1 POP SWAP2 SWAP1 POP JUMP JUMPDEST PUSH32 0x4E487B7100000000000000000000000000000000000000000000000000000000 PUSH1 0x0 MSTORE PUSH1 0x11 PUSH1 0x4 MSTORE PUSH1 0x24 PUSH1 0x0 REVERT JUMPDEST PUSH1 0x0 PUSH2 0x192F DUP3 PUSH2 0x1173 JUMP JUMPDEST SWAP2 POP PUSH2 0x193A DUP4 PUSH2 0x1173 JUMP JUMPDEST SWAP3 POP DUP3 DUP3 MUL PUSH2 0x1948 DUP2 PUSH2 0x1173 JUMP JUMPDEST SWAP2 POP DUP3 DUP3 DIV DUP5 EQ DUP4 ISZERO OR PUSH2 0x195F JUMPI PUSH2 0x195E PUSH2 0x18F5 JUMP JUMPDEST JUMPDEST POP SWAP3 SWAP2 POP POP JUMP JUMPDEST PUSH32 0x4E487B7100000000000000000000000000000000000000000000000000000000 PUSH1 0x0 MSTORE PUSH1 0x12 PUSH1 0x4 MSTORE PUSH1 0x24 PUSH1 0x0 REVERT JUMPDEST PUSH1 0x0 PUSH2 0x19A0 DUP3 PUSH2 0x1173 JUMP JUMPDEST SWAP2 POP PUSH2 0x19AB DUP4 PUSH2 0x1173 JUMP JUMPDEST SWAP3 POP DUP3 PUSH2 0x19BB JUMPI PUSH2 0x19BA PUSH2 0x1966 JUMP JUMPDEST JUMPDEST DUP3 DUP3 DIV SWAP1 POP SWAP3 SWAP2 POP POP JUMP JUMPDEST PUSH1 0x0 PUSH2 0x19D1 DUP3 PUSH2 0x1173 JUMP JUMPDEST SWAP2 POP PUSH2 0x19DC DUP4 PUSH2 0x1173 JUMP JUMPDEST SWAP3 POP DUP3 DUP3 SUB SWAP1 POP DUP2 DUP2 GT ISZERO PUSH2 0x19F4 JUMPI PUSH2 0x19F3 PUSH2 0x18F5 JUMP JUMPDEST JUMPDEST SWAP3 SWAP2 POP POP JUMP JUMPDEST PUSH32 0x4F6E6C79206F776E65722063616E207365742066656500000000000000000000 PUSH1 0x0 DUP3 ADD MSTORE POP JUMP JUMPDEST PUSH1 0x0 PUSH2 0x1A30 PUSH1 0x16 DUP4 PUSH2 0x124C JUMP JUMPDEST SWAP2 POP PUSH2 0x1A3B DUP3 PUSH2 0x19FA JUMP JUMPDEST PUSH1 0x20 DUP3 ADD SWAP1 POP SWAP2 SWAP1 POP JUMP JUMPDEST PUSH1 0x0 PUSH1 0x20 DUP3 ADD SWAP1 POP DUP2 DUP2 SUB PUSH1 0x0 DUP4 ADD MSTORE PUSH2 0x1A5F DUP2 PUSH2 0x1A23 JUMP JUMPDEST SWAP1 POP SWAP2 SWAP1 POP JUMP JUMPDEST PUSH32 0x4665652063616E6E6F7420657863656564203130250000000000000000000000 PUSH1 0x0 DUP3 ADD MSTORE POP JUMP JUMPDEST PUSH1 0x0 PUSH2 0x1A9C PUSH1 0x15 DUP4 PUSH2 0x124C JUMP JUMPDEST SWAP2 POP PUSH2 0x1AA7 DUP3 PUSH2 0x1A66 JUMP JUMPDEST PUSH1 0x20 DUP3 ADD SWAP1 POP SWAP2 SWAP1 POP JUMP JUMPDEST PUSH1 0x0 PUSH1 0x20 DUP3 ADD SWAP1 POP DUP2 DUP2 SUB PUSH1 0x0 DUP4 ADD MSTORE PUSH2 0x1ACB DUP2 PUSH2 0x1A8F JUMP JUMPDEST SWAP1 POP SWAP2 SWAP1 POP JUMP JUMPDEST PUSH32 0x4F6E6C79206F776E65722063616E207769746864726177206665657300000000 PUSH1 0x0 DUP3 ADD MSTORE POP JUMP JUMPDEST PUSH1 0x0 PUSH2 0x1B08 PUSH1 0x1C DUP4 PUSH2 0x124C JUMP JUMPDEST SWAP2 POP PUSH2 0x1B13 DUP3 PUSH2 0x1AD2 JUMP JUMPDEST PUSH1 0x20 DUP3 ADD SWAP1 POP SWAP2 SWAP1 POP JUMP JUMPDEST PUSH1 0x0 PUSH1 0x20 DUP3 ADD SWAP1 POP DUP2 DUP2 SUB PUSH1 0x0 DUP4 ADD MSTORE PUSH2 0x1B37 DUP2 PUSH2 0x1AFB JUMP JUMPDEST SWAP1 POP SWAP2 SWAP1 POP JUMP JUMPDEST PUSH32 0x4E487B7100000000000000000000000000000000000000000000000000000000 PUSH1 0x0 MSTORE PUSH1 0x22 PUSH1 0x4 MSTORE PUSH1 0x24 PUSH1 0x0 REVERT JUMPDEST PUSH1 0x0 PUSH1 0x2 DUP3 DIV SWAP1 POP PUSH1 0x1 DUP3 AND DUP1 PUSH2 0x1B85 JUMPI PUSH1 0x7F DUP3 AND SWAP2 POP JUMPDEST PUSH1 0x20 DUP3 LT DUP2 SUB PUSH2 0x1B98 JUMPI PUSH2 0x1B97 PUSH2 0x1B3E JUMP JUMPDEST JUMPDEST POP SWAP2 SWAP1 POP JUMP JUMPDEST PUSH1 0x0 PUSH2 0x1BA9 DUP3 PUSH2 0x1173 JUMP JUMPDEST SWAP2 POP PUSH32 0xFFFFFFFFFFFFFFFFFFFFFFFFFFFFFFFFFFFFFFFFFFFFFFFFFFFFFFFFFFFFFFFF DUP3 SUB PUSH2 0x1BDB JUMPI PUSH2 0x1BDA PUSH2 0x18F5 JUMP JUMPDEST JUMPDEST PUSH1 0x1 DUP3 ADD SWAP1 POP SWAP2 SWAP1 POP JUMP JUMPDEST PUSH1 0x0 DUP2 SWAP1 POP DUP2 PUSH1 0x0 MSTORE PUSH1 0x20 PUSH1 0x0 KECCAK256 SWAP1 POP SWAP2 SWAP1 POP JUMP JUMPDEST PUSH1 0x0 PUSH1 0x20 PUSH1 0x1F DUP4 ADD DIV SWAP1 POP SWAP2 SWAP1 POP JUMP JUMPDEST PUSH1 0x0 DUP3 DUP3 SHL SWAP1 POP SWAP3 SWAP2 POP POP JUMP JUMPDEST PUSH1 0x0 PUSH1 0x8 DUP4 MUL PUSH2 0x1C48 PUSH32 0xFFFFFFFFFFFFFFFFFFFFFFFFFFFFFFFFFFFFFFFFFFFFFFFFFFFFFFFFFFFFFFFF DUP3 PUSH2 0x1C0B JUMP JUMPDEST PUSH2 0x1C52 DUP7 DUP4 PUSH2 0x1C0B JUMP JUMPDEST SWAP6 POP DUP1 NOT DUP5 AND SWAP4 POP DUP1 DUP7 AND DUP5 OR SWAP3 POP POP POP SWAP4 SWAP3 POP POP POP JUMP JUMPDEST PUSH1 0x0 DUP2 SWAP1 POP SWAP2 SWAP1 POP JUMP JUMPDEST PUSH1 0x0 PUSH2 0x1C8F PUSH2 0x1C8A PUSH2 0x1C85 DUP5 PUSH2 0x1173 JUMP JUMPDEST PUSH2 0x1C6A JUMP JUMPDEST PUSH2 0x1173 JUMP JUMPDEST SWAP1 POP SWAP2 SWAP1 POP JUMP JUMPDEST PUSH1 0x0 DUP2 SWAP1 POP SWAP2 SWAP1 POP JUMP JUMPDEST PUSH2 0x1CA9 DUP4 PUSH2 0x1C74 JUMP JUMPDEST PUSH2 0x1CBD PUSH2 0x1CB5 DUP3 PUSH2 0x1C96 JUMP JUMPDEST DUP5 DUP5 SLOAD PUSH2 0x1C18 JUMP JUMPDEST DUP3 SSTORE POP POP POP POP JUMP JUMPDEST PUSH1 0x0 SWAP1 JUMP JUMPDEST PUSH2 0x1CD2 PUSH2 0x1CC5 JUMP JUMPDEST PUSH2 0x1CDD DUP2 DUP5 DUP5 PUSH2 0x1CA0 JUMP JUMPDEST POP POP POP JUMP JUMPDEST JUMPDEST DUP2 DUP2 LT ISZERO PUSH2 0x1D01 JUMPI PUSH2 0x1CF6 PUSH1 0x0 DUP3 PUSH2 0x1CCA JUMP JUMPDEST PUSH1 0x1 DUP2 ADD SWAP1 POP PUSH2 0x1CE3 JUMP JUMPDEST POP POP JUMP JUMPDEST PUSH1 0x1F DUP3 GT ISZERO PUSH2 0x1D46 JUMPI PUSH2 0x1D17 DUP2 PUSH2 0x1BE6 JUMP JUMPDEST PUSH2 0x1D20 DUP5 PUSH2 0x1BFB JUMP JUMPDEST DUP2 ADD PUSH1 0x20 DUP6 LT ISZERO PUSH2 0x1D2F JUMPI DUP2 SWAP1 POP JUMPDEST PUSH2 0x1D43 PUSH2 0x1D3B DUP6 PUSH2 0x1BFB JUMP JUMPDEST DUP4 ADD DUP3 PUSH2 0x1CE2 JUMP JUMPDEST POP POP JUMPDEST POP POP POP JUMP JUMPDEST PUSH1 0x0 DUP3 DUP3 SHR SWAP1 POP SWAP3 SWAP2 POP POP JUMP JUMPDEST PUSH1 0x0 PUSH2 0x1D69 PUSH1 0x0 NOT DUP5 PUSH1 0x8 MUL PUSH2 0x1D4B JUMP JUMPDEST NOT DUP1 DUP4 AND SWAP2 POP POP SWAP3 SWAP2 POP POP JUMP JUMPDEST PUSH1 0x0 PUSH2 0x1D82 DUP4 DUP4 PUSH2 0x1D58 JUMP JUMPDEST SWAP2 POP DUP3 PUSH1 0x2 MUL DUP3 OR SWAP1 POP SWAP3 SWAP2 POP POP JUMP JUMPDEST PUSH2 0x1D9B DUP3 PUSH2 0x1241 JUMP JUMPDEST PUSH8 0xFFFFFFFFFFFFFFFF DUP2 GT ISZERO PUSH2 0x1DB4 JUMPI PUSH2 0x1DB3 PUSH2 0x1382 JUMP JUMPDEST JUMPDEST PUSH2 0x1DBE DUP3 SLOAD PUSH2 0x1B6D JUMP JUMPDEST PUSH2 0x1DC9 DUP3 DUP3 DUP6 PUSH2 0x1D05 JUMP JUMPDEST PUSH1 0x0 PUSH1 0x20 SWAP1 POP PUSH1 0x1F DUP4 GT PUSH1 0x1 DUP2 EQ PUSH2 0x1DFC JUMPI PUSH1 0x0 DUP5 ISZERO PUSH2 0x1DEA JUMPI DUP3 DUP8 ADD MLOAD SWAP1 POP JUMPDEST PUSH2 0x1DF4 DUP6 DUP3 PUSH2 0x1D76 JUMP JUMPDEST DUP7 SSTORE POP PUSH2 0x1E5C JUMP JUMPDEST PUSH1 0x1F NOT DUP5 AND PUSH2 0x1E0A DUP7 PUSH2 0x1BE6 JUMP JUMPDEST PUSH1 0x0 JUMPDEST DUP3 DUP2 LT ISZERO PUSH2 0x1E32 JUMPI DUP5 DUP10 ADD MLOAD DUP3 SSTORE PUSH1 0x1 DUP3 ADD SWAP2 POP PUSH1 0x20 DUP6 ADD SWAP5 POP PUSH1 0x20 DUP2 ADD SWAP1 POP PUSH2 0x1E0D JUMP JUMPDEST DUP7 DUP4 LT ISZERO PUSH2 0x1E4F JUMPI DUP5 DUP10 ADD MLOAD PUSH2 0x1E4B PUSH1 0x1F DUP10 AND DUP3 PUSH2 0x1D58 JUMP JUMPDEST DUP4 SSTORE POP JUMPDEST PUSH1 0x1 PUSH1 0x2 DUP9 MUL ADD DUP9 SSTORE POP POP POP JUMPDEST POP POP POP POP POP POP JUMP JUMPDEST PUSH1 0x0 DUP2 SWAP1 POP SWAP3 SWAP2 POP POP JUMP JUMPDEST PUSH1 0x0 PUSH2 0x1E7A DUP3 PUSH2 0x1241 JUMP JUMPDEST PUSH2 0x1E84 DUP2 DUP6 PUSH2 0x1E64 JUMP JUMPDEST SWAP4 POP PUSH2 0x1E94 DUP2 DUP6 PUSH1 0x20 DUP7 ADD PUSH2 0x125D JUMP JUMPDEST DUP1 DUP5 ADD SWAP2 POP POP SWAP3 SWAP2 POP POP JUMP JUMPDEST PUSH1 0x0 PUSH2 0x1EAC DUP3 DUP5 PUSH2 0x1E6F JUMP JUMPDEST SWAP2 POP DUP2 SWAP1 POP SWAP3 SWAP2 POP POP JUMP JUMPDEST PUSH1 0x0 PUSH1 0x60 DUP3 ADD SWAP1 POP DUP2 DUP2 SUB PUSH1 0x0 DUP4 ADD MSTORE PUSH2 0x1ED1 DUP2 DUP7 PUSH2 0x1298 JUMP JUMPDEST SWAP1 POP PUSH2 0x1EE0 PUSH1 0x20 DUP4 ADD DUP6 PUSH2 0x11D6 JUMP JUMPDEST DUP2 DUP2 SUB PUSH1 0x40 DUP4 ADD MSTORE PUSH2 0x1EF2 DUP2 DUP5 PUSH2 0x1298 JUMP JUMPDEST SWAP1 POP SWAP5 SWAP4 POP POP POP POP JUMP JUMPDEST PUSH32 0x4E487B7100000000000000000000000000000000000000000000000000000000 PUSH1 0x0 MSTORE PUSH1 0x32 PUSH1 0x4 MSTORE PUSH1 0x24 PUSH1 0x0 REVERT JUMPDEST PUSH32 0x4E6F7420746865206F776E657200000000000000000000000000000000000000 PUSH1 0x0 DUP3 ADD MSTORE POP JUMP JUMPDEST PUSH1 0x0 PUSH2 0x1F61 PUSH1 0xD DUP4 PUSH2 0x124C JUMP JUMPDEST SWAP2 POP PUSH2 0x1F6C DUP3 PUSH2 0x1F2B JUMP JUMPDEST PUSH1 0x20 DUP3 ADD SWAP1 POP SWAP2 SWAP1 POP JUMP JUMPDEST PUSH1 0x0 PUSH1 0x20 DUP3 ADD SWAP1 POP DUP2 DUP2 SUB PUSH1 0x0 DUP4 ADD MSTORE PUSH2 0x1F90 DUP2 PUSH2 0x1F54 JUMP JUMPDEST SWAP1 POP SWAP2 SWAP1 POP JUMP JUMPDEST PUSH32 0x5072696365206D7573742062652067726561746572207468616E203000000000 PUSH1 0x0 DUP3 ADD MSTORE POP JUMP JUMPDEST PUSH1 0x0 PUSH2 0x1FCD PUSH1 0x1C DUP4 PUSH2 0x124C JUMP JUMPDEST SWAP2 POP PUSH2 0x1FD8 DUP3 PUSH2 0x1F97 JUMP JUMPDEST PUSH1 0x20 DUP3 ADD SWAP1 POP SWAP2 SWAP1 POP JUMP JUMPDEST PUSH1 0x0 PUSH1 0x20 DUP3 ADD SWAP1 POP DUP2 DUP2 SUB PUSH1 0x0 DUP4 ADD MSTORE PUSH2 0x1FFC DUP2 PUSH2 0x1FC0 JUMP JUMPDEST SWAP1 POP SWAP2 SWAP1 POP JUMP INVALID LOG2 PUSH5 0x6970667358 0x22 SLT KECCAK256 CALLER 0xA6 0xAC 0xC7 BLOCKHASH PUSH6 0xC87FFE1553A4 0xE9 0xCC SAR 0xC5 SWAP3 MSTORE SWAP6 0xC6 0xB7 SWAP2 0xC3 0xA5 0x1E PUSH22 0xC57379B53C5164736F6C634300081300330000000000 "},"methodIdentifiers":{"buyForward(uint256)":"065c5e0a","forwards(uint256)":"6475fd54","getForwardsForSale()":"d05d6889","getMatchForwards(string)":"983dc7f2","getUserForwards(address)":"e9fa0163","listForSale(uint256,uint256)":"e80d7fec","lockForward(string,uint256,string)":"7e21ba4f","matchForwards(string,uint256)":"df2daded","nextForwardId()":"b1fea0b7","owner()":"8da5cb5b","platformFee()":"26232a2e","setPlatformFee(uint256)":"12e8e2c3","userForwards(address,uint256)":"b41ffd03","withdrawFees()":"476343ee"}}}}}